{
  "_format": "hh-sol-artifact-1",
  "contractName": "LandNFT",
  "sourceName": "contracts/Land.sol",
  "abi": [
    {
      "inputs": [],
      "stateMutability": "nonpayable",
      "type": "constructor"
    },
    {
      "anonymous": false,
      "inputs": [
        {
          "indexed": true,
          "internalType": "address",
          "name": "owner",
          "type": "address"
        },
        {
          "indexed": true,
          "internalType": "address",
          "name": "approved",
          "type": "address"
        },
        {
          "indexed": true,
          "internalType": "uint256",
          "name": "tokenId",
          "type": "uint256"
        }
      ],
      "name": "Approval",
      "type": "event"
    },
    {
      "anonymous": false,
      "inputs": [
        {
          "indexed": true,
          "internalType": "address",
          "name": "owner",
          "type": "address"
        },
        {
          "indexed": true,
          "internalType": "address",
          "name": "operator",
          "type": "address"
        },
        {
          "indexed": false,
          "internalType": "bool",
          "name": "approved",
          "type": "bool"
        }
      ],
      "name": "ApprovalForAll",
      "type": "event"
    },
    {
      "anonymous": false,
      "inputs": [
        {
          "indexed": true,
          "internalType": "address",
          "name": "previousOwner",
          "type": "address"
        },
        {
          "indexed": true,
          "internalType": "address",
          "name": "newOwner",
          "type": "address"
        }
      ],
      "name": "OwnershipTransferred",
      "type": "event"
    },
    {
      "anonymous": false,
      "inputs": [
        {
          "indexed": true,
          "internalType": "address",
          "name": "from",
          "type": "address"
        },
        {
          "indexed": true,
          "internalType": "address",
          "name": "to",
          "type": "address"
        },
        {
          "indexed": true,
          "internalType": "uint256",
          "name": "tokenId",
          "type": "uint256"
        }
      ],
      "name": "Transfer",
      "type": "event"
    },
    {
      "inputs": [
        {
          "internalType": "address",
          "name": "to",
          "type": "address"
        },
        {
          "internalType": "uint256",
          "name": "tokenId",
          "type": "uint256"
        }
      ],
      "name": "approve",
      "outputs": [],
      "stateMutability": "nonpayable",
      "type": "function"
    },
    {
      "inputs": [
        {
          "internalType": "address",
          "name": "owner",
          "type": "address"
        }
      ],
      "name": "balanceOf",
      "outputs": [
        {
          "internalType": "uint256",
          "name": "",
          "type": "uint256"
        }
      ],
      "stateMutability": "view",
      "type": "function"
    },
    {
      "inputs": [
        {
          "internalType": "uint256",
          "name": "tokenId",
          "type": "uint256"
        }
      ],
      "name": "buyLand",
      "outputs": [],
      "stateMutability": "payable",
      "type": "function"
    },
    {
      "inputs": [
        {
          "internalType": "uint256",
          "name": "tokenId",
          "type": "uint256"
        }
      ],
      "name": "getApproved",
      "outputs": [
        {
          "internalType": "address",
          "name": "",
          "type": "address"
        }
      ],
      "stateMutability": "view",
      "type": "function"
    },
    {
      "inputs": [
        {
          "internalType": "uint256",
          "name": "tokenId",
          "type": "uint256"
        }
      ],
      "name": "getLand",
      "outputs": [
        {
          "components": [
            {
              "internalType": "uint256",
              "name": "tokenId",
              "type": "uint256"
            },
            {
              "internalType": "address payable",
              "name": "seller",
              "type": "address"
            },
            {
              "internalType": "address payable",
              "name": "owner",
              "type": "address"
            },
            {
              "internalType": "uint256",
              "name": "price",
              "type": "uint256"
            },
            {
              "internalType": "bool",
              "name": "sold",
              "type": "bool"
            }
          ],
          "internalType": "struct LandNFT.Land",
          "name": "",
          "type": "tuple"
        }
      ],
      "stateMutability": "view",
      "type": "function"
    },
    {
      "inputs": [],
      "name": "getLandLength",
      "outputs": [
        {
          "internalType": "uint256",
          "name": "",
          "type": "uint256"
        }
      ],
      "stateMutability": "view",
      "type": "function"
    },
    {
      "inputs": [
        {
          "internalType": "address",
          "name": "owner",
          "type": "address"
        },
        {
          "internalType": "address",
          "name": "operator",
          "type": "address"
        }
      ],
      "name": "isApprovedForAll",
      "outputs": [
        {
          "internalType": "bool",
          "name": "",
          "type": "bool"
        }
      ],
      "stateMutability": "view",
      "type": "function"
    },
    {
      "inputs": [],
      "name": "name",
      "outputs": [
        {
          "internalType": "string",
          "name": "",
          "type": "string"
        }
      ],
      "stateMutability": "view",
      "type": "function"
    },
    {
      "inputs": [],
      "name": "owner",
      "outputs": [
        {
          "internalType": "address",
          "name": "",
          "type": "address"
        }
      ],
      "stateMutability": "view",
      "type": "function"
    },
    {
      "inputs": [
        {
          "internalType": "uint256",
          "name": "tokenId",
          "type": "uint256"
        }
      ],
      "name": "ownerOf",
      "outputs": [
        {
          "internalType": "address",
          "name": "",
          "type": "address"
        }
      ],
      "stateMutability": "view",
      "type": "function"
    },
    {
      "inputs": [],
      "name": "renounceOwnership",
      "outputs": [],
      "stateMutability": "nonpayable",
      "type": "function"
    },
    {
      "inputs": [
        {
          "internalType": "string",
          "name": "uri",
          "type": "string"
        },
        {
          "internalType": "uint256",
          "name": "price",
          "type": "uint256"
        }
      ],
      "name": "safeMint",
      "outputs": [
        {
          "internalType": "uint256",
          "name": "",
          "type": "uint256"
        }
      ],
      "stateMutability": "payable",
      "type": "function"
    },
    {
      "inputs": [
        {
          "internalType": "address",
          "name": "from",
          "type": "address"
        },
        {
          "internalType": "address",
          "name": "to",
          "type": "address"
        },
        {
          "internalType": "uint256",
          "name": "tokenId",
          "type": "uint256"
        }
      ],
      "name": "safeTransferFrom",
      "outputs": [],
      "stateMutability": "nonpayable",
      "type": "function"
    },
    {
      "inputs": [
        {
          "internalType": "address",
          "name": "from",
          "type": "address"
        },
        {
          "internalType": "address",
          "name": "to",
          "type": "address"
        },
        {
          "internalType": "uint256",
          "name": "tokenId",
          "type": "uint256"
        },
        {
          "internalType": "bytes",
          "name": "_data",
          "type": "bytes"
        }
      ],
      "name": "safeTransferFrom",
      "outputs": [],
      "stateMutability": "nonpayable",
      "type": "function"
    },
    {
      "inputs": [
        {
          "internalType": "uint256",
          "name": "tokenId",
          "type": "uint256"
        }
      ],
      "name": "sellLand",
      "outputs": [],
      "stateMutability": "payable",
      "type": "function"
    },
    {
      "inputs": [
        {
          "internalType": "address",
          "name": "operator",
          "type": "address"
        },
        {
          "internalType": "bool",
          "name": "approved",
          "type": "bool"
        }
      ],
      "name": "setApprovalForAll",
      "outputs": [],
      "stateMutability": "nonpayable",
      "type": "function"
    },
    {
      "inputs": [
        {
          "internalType": "bytes4",
          "name": "interfaceId",
          "type": "bytes4"
        }
      ],
      "name": "supportsInterface",
      "outputs": [
        {
          "internalType": "bool",
          "name": "",
          "type": "bool"
        }
      ],
      "stateMutability": "view",
      "type": "function"
    },
    {
      "inputs": [],
      "name": "symbol",
      "outputs": [
        {
          "internalType": "string",
          "name": "",
          "type": "string"
        }
      ],
      "stateMutability": "view",
      "type": "function"
    },
    {
      "inputs": [
        {
          "internalType": "uint256",
          "name": "index",
          "type": "uint256"
        }
      ],
      "name": "tokenByIndex",
      "outputs": [
        {
          "internalType": "uint256",
          "name": "",
          "type": "uint256"
        }
      ],
      "stateMutability": "view",
      "type": "function"
    },
    {
      "inputs": [
        {
          "internalType": "address",
          "name": "owner",
          "type": "address"
        },
        {
          "internalType": "uint256",
          "name": "index",
          "type": "uint256"
        }
      ],
      "name": "tokenOfOwnerByIndex",
      "outputs": [
        {
          "internalType": "uint256",
          "name": "",
          "type": "uint256"
        }
      ],
      "stateMutability": "view",
      "type": "function"
    },
    {
      "inputs": [
        {
          "internalType": "uint256",
          "name": "tokenId",
          "type": "uint256"
        }
      ],
      "name": "tokenURI",
      "outputs": [
        {
          "internalType": "string",
          "name": "",
          "type": "string"
        }
      ],
      "stateMutability": "view",
      "type": "function"
    },
    {
      "inputs": [],
      "name": "totalSupply",
      "outputs": [
        {
          "internalType": "uint256",
          "name": "",
          "type": "uint256"
        }
      ],
      "stateMutability": "view",
      "type": "function"
    },
    {
      "inputs": [
        {
          "internalType": "address",
          "name": "from",
          "type": "address"
        },
        {
          "internalType": "address",
          "name": "to",
          "type": "address"
        },
        {
          "internalType": "uint256",
          "name": "tokenId",
          "type": "uint256"
        }
      ],
      "name": "transferFrom",
      "outputs": [],
      "stateMutability": "nonpayable",
      "type": "function"
    },
    {
      "inputs": [
        {
          "internalType": "address",
          "name": "newOwner",
          "type": "address"
        }
      ],
      "name": "transferOwnership",
      "outputs": [],
      "stateMutability": "nonpayable",
      "type": "function"
    }
  ],
  "bytecode": "0x60806040526000600d553480156200001657600080fd5b506040518060400160405280600681526020017f4c616e64657200000000000000000000000000000000000000000000000000008152506040518060400160405280600481526020017f4c414e440000000000000000000000000000000000000000000000000000000081525081600090805190602001906200009b929190620001ab565b508060019080519060200190620000b4929190620001ab565b505050620000d7620000cb620000dd60201b60201c565b620000e560201b60201c565b620002c0565b600033905090565b6000600b60009054906101000a900473ffffffffffffffffffffffffffffffffffffffff16905081600b60006101000a81548173ffffffffffffffffffffffffffffffffffffffff021916908373ffffffffffffffffffffffffffffffffffffffff1602179055508173ffffffffffffffffffffffffffffffffffffffff168173ffffffffffffffffffffffffffffffffffffffff167f8be0079c531659141344cd1fd0a4f28419497f9722a3daafe3b4186f6b6457e060405160405180910390a35050565b828054620001b9906200025b565b90600052602060002090601f016020900481019282620001dd576000855562000229565b82601f10620001f857805160ff191683800117855562000229565b8280016001018555821562000229579182015b82811115620002285782518255916020019190600101906200020b565b5b5090506200023891906200023c565b5090565b5b80821115620002575760008160009055506001016200023d565b5090565b600060028204905060018216806200027457607f821691505b602082108114156200028b576200028a62000291565b5b50919050565b7f4e487b7100000000000000000000000000000000000000000000000000000000600052602260045260246000fd5b61420f80620002d06000396000f3fe60806040526004361061014b5760003560e01c806370a08231116100b6578063c87b56dd1161006f578063c87b56dd1461049a578063ced39558146104d7578063d2f37beb146104f3578063e985e9c51461051e578063f02dd53f1461055b578063f2fde38b146105985761014b565b806370a082311461039e578063715018a6146103db5780638da5cb5b146103f257806395d89b411461041d578063a22cb46514610448578063b88d4fde146104715761014b565b80632418b8b1116101085780632418b8b1146102725780632f745c591461028e57806342842e0e146102cb57806346b145e1146102f45780634f6ccce7146103245780636352211e146103615761014b565b806301ffc9a71461015057806306fdde031461018d578063081812fc146101b8578063095ea7b3146101f557806318160ddd1461021e57806323b872dd14610249575b600080fd5b34801561015c57600080fd5b5061017760048036038101906101729190612df4565b6105c1565b60405161018491906133d8565b60405180910390f35b34801561019957600080fd5b506101a26105d3565b6040516101af91906133f3565b60405180910390f35b3480156101c457600080fd5b506101df60048036038101906101da9190612e9a565b610665565b6040516101ec9190613371565b60405180910390f35b34801561020157600080fd5b5061021c60048036038101906102179190612db8565b6106ea565b005b34801561022a57600080fd5b50610233610802565b6040516102409190613710565b60405180910390f35b34801561025557600080fd5b50610270600480360381019061026b9190612cb2565b61080f565b005b61028c60048036038101906102879190612e9a565b61086f565b005b34801561029a57600080fd5b506102b560048036038101906102b09190612db8565b6109fa565b6040516102c29190613710565b60405180910390f35b3480156102d757600080fd5b506102f260048036038101906102ed9190612cb2565b610a9f565b005b61030e60048036038101906103099190612e46565b610abf565b60405161031b9190613710565b60405180910390f35b34801561033057600080fd5b5061034b60048036038101906103469190612e9a565b610b00565b6040516103589190613710565b60405180910390f35b34801561036d57600080fd5b5061038860048036038101906103839190612e9a565b610b97565b6040516103959190613371565b60405180910390f35b3480156103aa57600080fd5b506103c560048036038101906103c09190612c4d565b610c49565b6040516103d29190613710565b60405180910390f35b3480156103e757600080fd5b506103f0610d01565b005b3480156103fe57600080fd5b50610407610d89565b6040516104149190613371565b60405180910390f35b34801561042957600080fd5b50610432610db3565b60405161043f91906133f3565b60405180910390f35b34801561045457600080fd5b5061046f600480360381019061046a9190612d7c565b610e45565b005b34801561047d57600080fd5b5061049860048036038101906104939190612d01565b610e5b565b005b3480156104a657600080fd5b506104c160048036038101906104bc9190612e9a565b610ebd565b6040516104ce91906133f3565b60405180910390f35b6104f160048036038101906104ec9190612e9a565b610ecf565b005b3480156104ff57600080fd5b50610508611099565b6040516105159190613710565b60405180910390f35b34801561052a57600080fd5b5061054560048036038101906105409190612c76565b6110aa565b60405161055291906133d8565b60405180910390f35b34801561056757600080fd5b50610582600480360381019061057d9190612e9a565b61113e565b60405161058f91906136f5565b60405180910390f35b3480156105a457600080fd5b506105bf60048036038101906105ba9190612c4d565b611246565b005b60006105cc8261133e565b9050919050565b6060600080546105e290613978565b80601f016020809104026020016040519081016040528092919081815260200182805461060e90613978565b801561065b5780601f106106305761010080835404028352916020019161065b565b820191906000526020600020905b81548152906001019060200180831161063e57829003601f168201915b5050505050905090565b6000610670826113b8565b6106af576040517f08c379a00000000000000000000000000000000000000000000000000000000081526004016106a6906135f5565b60405180910390fd5b6004600083815260200190815260200160002060009054906101000a900473ffffffffffffffffffffffffffffffffffffffff169050919050565b60006106f582610b97565b90508073ffffffffffffffffffffffffffffffffffffffff168373ffffffffffffffffffffffffffffffffffffffff161415610766576040517f08c379a000000000000000000000000000000000000000000000000000000000815260040161075d90613655565b60405180910390fd5b8073ffffffffffffffffffffffffffffffffffffffff16610785611424565b73ffffffffffffffffffffffffffffffffffffffff1614806107b457506107b3816107ae611424565b6110aa565b5b6107f3576040517f08c379a00000000000000000000000000000000000000000000000000000000081526004016107ea90613515565b60405180910390fd5b6107fd838361142c565b505050565b6000600880549050905090565b61082061081a611424565b826114e5565b61085f576040517f08c379a000000000000000000000000000000000000000000000000000000000815260040161085690613675565b60405180910390fd5b61086a8383836115c3565b505050565b3373ffffffffffffffffffffffffffffffffffffffff16600e600083815260200190815260200160002060020160009054906101000a900473ffffffffffffffffffffffffffffffffffffffff1673ffffffffffffffffffffffffffffffffffffffff1614610913576040517f08c379a000000000000000000000000000000000000000000000000000000000815260040161090a906135d5565b60405180910390fd5b6000600e600083815260200190815260200160002060040160006101000a81548160ff02191690831515021790555033600e600083815260200190815260200160002060010160006101000a81548173ffffffffffffffffffffffffffffffffffffffff021916908373ffffffffffffffffffffffffffffffffffffffff16021790555030600e600083815260200190815260200160002060020160006101000a81548173ffffffffffffffffffffffffffffffffffffffff021916908373ffffffffffffffffffffffffffffffffffffffff1602179055506109f73330836115c3565b50565b6000610a0583610c49565b8210610a46576040517f08c379a0000000000000000000000000000000000000000000000000000000008152600401610a3d90613415565b60405180910390fd5b600660008473ffffffffffffffffffffffffffffffffffffffff1673ffffffffffffffffffffffffffffffffffffffff168152602001908152602001600020600083815260200190815260200160002054905092915050565b610aba83838360405180602001604052806000815250610e5b565b505050565b600080610acc600c61182a565b9050610ad8600c611838565b610ae2338261184e565b610aec8185611a28565b610af68184611a9c565b8091505092915050565b6000610b0a610802565b8210610b4b576040517f08c379a0000000000000000000000000000000000000000000000000000000008152600401610b4290613695565b60405180910390fd5b60088281548110610b85577f4e487b7100000000000000000000000000000000000000000000000000000000600052603260045260246000fd5b90600052602060002001549050919050565b6000806002600084815260200190815260200160002060009054906101000a900473ffffffffffffffffffffffffffffffffffffffff169050600073ffffffffffffffffffffffffffffffffffffffff168173ffffffffffffffffffffffffffffffffffffffff161415610c40576040517f08c379a0000000000000000000000000000000000000000000000000000000008152600401610c3790613555565b60405180910390fd5b80915050919050565b60008073ffffffffffffffffffffffffffffffffffffffff168273ffffffffffffffffffffffffffffffffffffffff161415610cba576040517f08c379a0000000000000000000000000000000000000000000000000000000008152600401610cb190613535565b60405180910390fd5b600360008373ffffffffffffffffffffffffffffffffffffffff1673ffffffffffffffffffffffffffffffffffffffff168152602001908152602001600020549050919050565b610d09611424565b73ffffffffffffffffffffffffffffffffffffffff16610d27610d89565b73ffffffffffffffffffffffffffffffffffffffff1614610d7d576040517f08c379a0000000000000000000000000000000000000000000000000000000008152600401610d7490613615565b60405180910390fd5b610d876000611c1c565b565b6000600b60009054906101000a900473ffffffffffffffffffffffffffffffffffffffff16905090565b606060018054610dc290613978565b80601f0160208091040260200160405190810160405280929190818152602001828054610dee90613978565b8015610e3b5780601f10610e1057610100808354040283529160200191610e3b565b820191906000526020600020905b815481529060010190602001808311610e1e57829003601f168201915b5050505050905090565b610e57610e50611424565b8383611ce2565b5050565b610e6c610e66611424565b836114e5565b610eab576040517f08c379a0000000000000000000000000000000000000000000000000000000008152600401610ea290613675565b60405180910390fd5b610eb784848484611e4f565b50505050565b6060610ec882611eab565b9050919050565b6000600e60008381526020019081526020016000206003015490506000600e600084815260200190815260200160002060010160009054906101000a900473ffffffffffffffffffffffffffffffffffffffff16905081341015610f68576040517f08c379a0000000000000000000000000000000000000000000000000000000008152600401610f5f906136d5565b60405180910390fd5b33600e600085815260200190815260200160002060020160006101000a81548173ffffffffffffffffffffffffffffffffffffffff021916908373ffffffffffffffffffffffffffffffffffffffff1602179055506001600e600085815260200190815260200160002060040160006101000a81548160ff0219169083151502179055506000600e600085815260200190815260200160002060010160006101000a81548173ffffffffffffffffffffffffffffffffffffffff021916908373ffffffffffffffffffffffffffffffffffffffff16021790555061104d3033856115c3565b8073ffffffffffffffffffffffffffffffffffffffff166108fc349081150290604051600060405180830381858888f19350505050158015611093573d6000803e3d6000fd5b50505050565b60006110a5600c61182a565b905090565b6000600560008473ffffffffffffffffffffffffffffffffffffffff1673ffffffffffffffffffffffffffffffffffffffff16815260200190815260200160002060008373ffffffffffffffffffffffffffffffffffffffff1673ffffffffffffffffffffffffffffffffffffffff16815260200190815260200160002060009054906101000a900460ff16905092915050565b611146612a14565b600e60008381526020019081526020016000206040518060a0016040529081600082015481526020016001820160009054906101000a900473ffffffffffffffffffffffffffffffffffffffff1673ffffffffffffffffffffffffffffffffffffffff1673ffffffffffffffffffffffffffffffffffffffff1681526020016002820160009054906101000a900473ffffffffffffffffffffffffffffffffffffffff1673ffffffffffffffffffffffffffffffffffffffff1673ffffffffffffffffffffffffffffffffffffffff168152602001600382015481526020016004820160009054906101000a900460ff1615151515815250509050919050565b61124e611424565b73ffffffffffffffffffffffffffffffffffffffff1661126c610d89565b73ffffffffffffffffffffffffffffffffffffffff16146112c2576040517f08c379a00000000000000000000000000000000000000000000000000000000081526004016112b990613615565b60405180910390fd5b600073ffffffffffffffffffffffffffffffffffffffff168173ffffffffffffffffffffffffffffffffffffffff161415611332576040517f08c379a000000000000000000000000000000000000000000000000000000000815260040161132990613455565b60405180910390fd5b61133b81611c1c565b50565b60007f780e9d63000000000000000000000000000000000000000000000000000000007bffffffffffffffffffffffffffffffffffffffffffffffffffffffff1916827bffffffffffffffffffffffffffffffffffffffffffffffffffffffff191614806113b157506113b082611ffd565b5b9050919050565b60008073ffffffffffffffffffffffffffffffffffffffff166002600084815260200190815260200160002060009054906101000a900473ffffffffffffffffffffffffffffffffffffffff1673ffffffffffffffffffffffffffffffffffffffff1614159050919050565b600033905090565b816004600083815260200190815260200160002060006101000a81548173ffffffffffffffffffffffffffffffffffffffff021916908373ffffffffffffffffffffffffffffffffffffffff160217905550808273ffffffffffffffffffffffffffffffffffffffff1661149f83610b97565b73ffffffffffffffffffffffffffffffffffffffff167f8c5be1e5ebec7d5bd14f71427d1e84f3dd0314c0f7b2291e5b200ac8c7c3b92560405160405180910390a45050565b60006114f0826113b8565b61152f576040517f08c379a0000000000000000000000000000000000000000000000000000000008152600401611526906134f5565b60405180910390fd5b600061153a83610b97565b90508073ffffffffffffffffffffffffffffffffffffffff168473ffffffffffffffffffffffffffffffffffffffff16148061157c575061157b81856110aa565b5b806115ba57508373ffffffffffffffffffffffffffffffffffffffff166115a284610665565b73ffffffffffffffffffffffffffffffffffffffff16145b91505092915050565b8273ffffffffffffffffffffffffffffffffffffffff166115e382610b97565b73ffffffffffffffffffffffffffffffffffffffff1614611639576040517f08c379a000000000000000000000000000000000000000000000000000000000815260040161163090613475565b60405180910390fd5b600073ffffffffffffffffffffffffffffffffffffffff168273ffffffffffffffffffffffffffffffffffffffff1614156116a9576040517f08c379a00000000000000000000000000000000000000000000000000000000081526004016116a0906134b5565b60405180910390fd5b6116b48383836120df565b6116bf60008261142c565b6001600360008573ffffffffffffffffffffffffffffffffffffffff1673ffffffffffffffffffffffffffffffffffffffff168152602001908152602001600020600082825461170f919061387c565b925050819055506001600360008473ffffffffffffffffffffffffffffffffffffffff1673ffffffffffffffffffffffffffffffffffffffff168152602001908152602001600020600082825461176691906137f5565b92505081905550816002600083815260200190815260200160002060006101000a81548173ffffffffffffffffffffffffffffffffffffffff021916908373ffffffffffffffffffffffffffffffffffffffff160217905550808273ffffffffffffffffffffffffffffffffffffffff168473ffffffffffffffffffffffffffffffffffffffff167fddf252ad1be2c89b69c2b068fc378daa952ba7f163c4a11628f55a4df523b3ef60405160405180910390a46118258383836120ef565b505050565b600081600001549050919050565b6001816000016000828254019250508190555050565b600073ffffffffffffffffffffffffffffffffffffffff168273ffffffffffffffffffffffffffffffffffffffff1614156118be576040517f08c379a00000000000000000000000000000000000000000000000000000000081526004016118b590613595565b60405180910390fd5b6118c7816113b8565b15611907576040517f08c379a00000000000000000000000000000000000000000000000000000000081526004016118fe90613495565b60405180910390fd5b611913600083836120df565b6001600360008473ffffffffffffffffffffffffffffffffffffffff1673ffffffffffffffffffffffffffffffffffffffff168152602001908152602001600020600082825461196391906137f5565b92505081905550816002600083815260200190815260200160002060006101000a81548173ffffffffffffffffffffffffffffffffffffffff021916908373ffffffffffffffffffffffffffffffffffffffff160217905550808273ffffffffffffffffffffffffffffffffffffffff16600073ffffffffffffffffffffffffffffffffffffffff167fddf252ad1be2c89b69c2b068fc378daa952ba7f163c4a11628f55a4df523b3ef60405160405180910390a4611a24600083836120ef565b5050565b611a31826113b8565b611a70576040517f08c379a0000000000000000000000000000000000000000000000000000000008152600401611a6790613575565b60405180910390fd5b80600a60008481526020019081526020016000209080519060200190611a97929190612a71565b505050565b60008111611adf576040517f08c379a0000000000000000000000000000000000000000000000000000000008152600401611ad6906136b5565b60405180910390fd5b6040518060a001604052808381526020013373ffffffffffffffffffffffffffffffffffffffff1681526020013073ffffffffffffffffffffffffffffffffffffffff16815260200182815260200160001515815250600e60008481526020019081526020016000206000820151816000015560208201518160010160006101000a81548173ffffffffffffffffffffffffffffffffffffffff021916908373ffffffffffffffffffffffffffffffffffffffff16021790555060408201518160020160006101000a81548173ffffffffffffffffffffffffffffffffffffffff021916908373ffffffffffffffffffffffffffffffffffffffff1602179055506060820151816003015560808201518160040160006101000a81548160ff021916908315150217905550905050611c183330846115c3565b5050565b6000600b60009054906101000a900473ffffffffffffffffffffffffffffffffffffffff16905081600b60006101000a81548173ffffffffffffffffffffffffffffffffffffffff021916908373ffffffffffffffffffffffffffffffffffffffff1602179055508173ffffffffffffffffffffffffffffffffffffffff168173ffffffffffffffffffffffffffffffffffffffff167f8be0079c531659141344cd1fd0a4f28419497f9722a3daafe3b4186f6b6457e060405160405180910390a35050565b8173ffffffffffffffffffffffffffffffffffffffff168373ffffffffffffffffffffffffffffffffffffffff161415611d51576040517f08c379a0000000000000000000000000000000000000000000000000000000008152600401611d48906134d5565b60405180910390fd5b80600560008573ffffffffffffffffffffffffffffffffffffffff1673ffffffffffffffffffffffffffffffffffffffff16815260200190815260200160002060008473ffffffffffffffffffffffffffffffffffffffff1673ffffffffffffffffffffffffffffffffffffffff16815260200190815260200160002060006101000a81548160ff0219169083151502179055508173ffffffffffffffffffffffffffffffffffffffff168373ffffffffffffffffffffffffffffffffffffffff167f17307eab39ab6107e8899845ad3d59bd9653f200f220920489ca2b5937696c3183604051611e4291906133d8565b60405180910390a3505050565b611e5a8484846115c3565b611e66848484846120f4565b611ea5576040517f08c379a0000000000000000000000000000000000000000000000000000000008152600401611e9c90613435565b60405180910390fd5b50505050565b6060611eb6826113b8565b611ef5576040517f08c379a0000000000000000000000000000000000000000000000000000000008152600401611eec906135b5565b60405180910390fd5b6000600a60008481526020019081526020016000208054611f1590613978565b80601f0160208091040260200160405190810160405280929190818152602001828054611f4190613978565b8015611f8e5780601f10611f6357610100808354040283529160200191611f8e565b820191906000526020600020905b815481529060010190602001808311611f7157829003601f168201915b505050505090506000611f9f61228b565b9050600081511415611fb5578192505050611ff8565b600082511115611fea578082604051602001611fd292919061334d565b60405160208183030381529060405292505050611ff8565b611ff3846122a2565b925050505b919050565b60007f80ac58cd000000000000000000000000000000000000000000000000000000007bffffffffffffffffffffffffffffffffffffffffffffffffffffffff1916827bffffffffffffffffffffffffffffffffffffffffffffffffffffffff191614806120c857507f5b5e139f000000000000000000000000000000000000000000000000000000007bffffffffffffffffffffffffffffffffffffffffffffffffffffffff1916827bffffffffffffffffffffffffffffffffffffffffffffffffffffffff1916145b806120d857506120d782612349565b5b9050919050565b6120ea8383836123b3565b505050565b505050565b60006121158473ffffffffffffffffffffffffffffffffffffffff166124c7565b1561227e578373ffffffffffffffffffffffffffffffffffffffff1663150b7a0261213e611424565b8786866040518563ffffffff1660e01b8152600401612160949392919061338c565b602060405180830381600087803b15801561217a57600080fd5b505af19250505080156121ab57506040513d601f19601f820116820180604052508101906121a89190612e1d565b60015b61222e573d80600081146121db576040519150601f19603f3d011682016040523d82523d6000602084013e6121e0565b606091505b50600081511415612226576040517f08c379a000000000000000000000000000000000000000000000000000000000815260040161221d90613435565b60405180910390fd5b805181602001fd5b63150b7a0260e01b7bffffffffffffffffffffffffffffffffffffffffffffffffffffffff1916817bffffffffffffffffffffffffffffffffffffffffffffffffffffffff191614915050612283565b600190505b949350505050565b606060405180602001604052806000815250905090565b60606122ad826113b8565b6122ec576040517f08c379a00000000000000000000000000000000000000000000000000000000081526004016122e390613635565b60405180910390fd5b60006122f661228b565b905060008151116123165760405180602001604052806000815250612341565b80612320846124ea565b60405160200161233192919061334d565b6040516020818303038152906040525b915050919050565b60007f01ffc9a7000000000000000000000000000000000000000000000000000000007bffffffffffffffffffffffffffffffffffffffffffffffffffffffff1916827bffffffffffffffffffffffffffffffffffffffffffffffffffffffff1916149050919050565b6123be838383612697565b600073ffffffffffffffffffffffffffffffffffffffff168373ffffffffffffffffffffffffffffffffffffffff161415612401576123fc8161269c565b612440565b8173ffffffffffffffffffffffffffffffffffffffff168373ffffffffffffffffffffffffffffffffffffffff161461243f5761243e83826126e5565b5b5b600073ffffffffffffffffffffffffffffffffffffffff168273ffffffffffffffffffffffffffffffffffffffff1614156124835761247e81612852565b6124c2565b8273ffffffffffffffffffffffffffffffffffffffff168273ffffffffffffffffffffffffffffffffffffffff16146124c1576124c08282612995565b5b5b505050565b6000808273ffffffffffffffffffffffffffffffffffffffff163b119050919050565b60606000821415612532576040518060400160405280600181526020017f30000000000000000000000000000000000000000000000000000000000000008152509050612692565b600082905060005b6000821461256457808061254d906139db565b915050600a8261255d919061384b565b915061253a565b60008167ffffffffffffffff8111156125a6577f4e487b7100000000000000000000000000000000000000000000000000000000600052604160045260246000fd5b6040519080825280601f01601f1916602001820160405280156125d85781602001600182028036833780820191505090505b5090505b6000851461268b576001826125f1919061387c565b9150600a856126009190613a24565b603061260c91906137f5565b60f81b818381518110612648577f4e487b7100000000000000000000000000000000000000000000000000000000600052603260045260246000fd5b60200101907effffffffffffffffffffffffffffffffffffffffffffffffffffffffffffff1916908160001a905350600a85612684919061384b565b94506125dc565b8093505050505b919050565b505050565b6008805490506009600083815260200190815260200160002081905550600881908060018154018082558091505060019003906000526020600020016000909190919091505550565b600060016126f284610c49565b6126fc919061387c565b90506000600760008481526020019081526020016000205490508181146127e1576000600660008673ffffffffffffffffffffffffffffffffffffffff1673ffffffffffffffffffffffffffffffffffffffff168152602001908152602001600020600084815260200190815260200160002054905080600660008773ffffffffffffffffffffffffffffffffffffffff1673ffffffffffffffffffffffffffffffffffffffff168152602001908152602001600020600084815260200190815260200160002081905550816007600083815260200190815260200160002081905550505b6007600084815260200190815260200160002060009055600660008573ffffffffffffffffffffffffffffffffffffffff1673ffffffffffffffffffffffffffffffffffffffff16815260200190815260200160002060008381526020019081526020016000206000905550505050565b60006001600880549050612866919061387c565b90506000600960008481526020019081526020016000205490506000600883815481106128bc577f4e487b7100000000000000000000000000000000000000000000000000000000600052603260045260246000fd5b906000526020600020015490508060088381548110612904577f4e487b7100000000000000000000000000000000000000000000000000000000600052603260045260246000fd5b906000526020600020018190555081600960008381526020019081526020016000208190555060096000858152602001908152602001600020600090556008805480612979577f4e487b7100000000000000000000000000000000000000000000000000000000600052603160045260246000fd5b6001900381819060005260206000200160009055905550505050565b60006129a083610c49565b905081600660008573ffffffffffffffffffffffffffffffffffffffff1673ffffffffffffffffffffffffffffffffffffffff168152602001908152602001600020600083815260200190815260200160002081905550806007600084815260200190815260200160002081905550505050565b6040518060a0016040528060008152602001600073ffffffffffffffffffffffffffffffffffffffff168152602001600073ffffffffffffffffffffffffffffffffffffffff168152602001600081526020016000151581525090565b828054612a7d90613978565b90600052602060002090601f016020900481019282612a9f5760008555612ae6565b82601f10612ab857805160ff1916838001178555612ae6565b82800160010185558215612ae6579182015b82811115612ae5578251825591602001919060010190612aca565b5b509050612af39190612af7565b5090565b5b80821115612b10576000816000905550600101612af8565b5090565b6000612b27612b2284613750565b61372b565b905082815260208101848484011115612b3f57600080fd5b612b4a848285613936565b509392505050565b6000612b65612b6084613781565b61372b565b905082815260208101848484011115612b7d57600080fd5b612b88848285613936565b509392505050565b600081359050612b9f8161417d565b92915050565b600081359050612bb481614194565b92915050565b600081359050612bc9816141ab565b92915050565b600081519050612bde816141ab565b92915050565b600082601f830112612bf557600080fd5b8135612c05848260208601612b14565b91505092915050565b600082601f830112612c1f57600080fd5b8135612c2f848260208601612b52565b91505092915050565b600081359050612c47816141c2565b92915050565b600060208284031215612c5f57600080fd5b6000612c6d84828501612b90565b91505092915050565b60008060408385031215612c8957600080fd5b6000612c9785828601612b90565b9250506020612ca885828601612b90565b9150509250929050565b600080600060608486031215612cc757600080fd5b6000612cd586828701612b90565b9350506020612ce686828701612b90565b9250506040612cf786828701612c38565b9150509250925092565b60008060008060808587031215612d1757600080fd5b6000612d2587828801612b90565b9450506020612d3687828801612b90565b9350506040612d4787828801612c38565b925050606085013567ffffffffffffffff811115612d6457600080fd5b612d7087828801612be4565b91505092959194509250565b60008060408385031215612d8f57600080fd5b6000612d9d85828601612b90565b9250506020612dae85828601612ba5565b9150509250929050565b60008060408385031215612dcb57600080fd5b6000612dd985828601612b90565b9250506020612dea85828601612c38565b9150509250929050565b600060208284031215612e0657600080fd5b6000612e1484828501612bba565b91505092915050565b600060208284031215612e2f57600080fd5b6000612e3d84828501612bcf565b91505092915050565b60008060408385031215612e5957600080fd5b600083013567ffffffffffffffff811115612e7357600080fd5b612e7f85828601612c0e565b9250506020612e9085828601612c38565b9150509250929050565b600060208284031215612eac57600080fd5b6000612eba84828501612c38565b91505092915050565b612ecc816138c2565b82525050565b612edb816138b0565b82525050565b612eea816138d4565b82525050565b612ef9816138d4565b82525050565b6000612f0a826137b2565b612f1481856137c8565b9350612f24818560208601613945565b612f2d81613b11565b840191505092915050565b6000612f43826137bd565b612f4d81856137d9565b9350612f5d818560208601613945565b612f6681613b11565b840191505092915050565b6000612f7c826137bd565b612f8681856137ea565b9350612f96818560208601613945565b80840191505092915050565b6000612faf602b836137d9565b9150612fba82613b22565b604082019050919050565b6000612fd26032836137d9565b9150612fdd82613b71565b604082019050919050565b6000612ff56026836137d9565b915061300082613bc0565b604082019050919050565b60006130186025836137d9565b915061302382613c0f565b604082019050919050565b600061303b601c836137d9565b915061304682613c5e565b602082019050919050565b600061305e6024836137d9565b915061306982613c87565b604082019050919050565b60006130816019836137d9565b915061308c82613cd6565b602082019050919050565b60006130a4602c836137d9565b91506130af82613cff565b604082019050919050565b60006130c76038836137d9565b91506130d282613d4e565b604082019050919050565b60006130ea602a836137d9565b91506130f582613d9d565b604082019050919050565b600061310d6029836137d9565b915061311882613dec565b604082019050919050565b6000613130602e836137d9565b915061313b82613e3b565b604082019050919050565b60006131536020836137d9565b915061315e82613e8a565b602082019050919050565b60006131766031836137d9565b915061318182613eb3565b604082019050919050565b6000613199602a836137d9565b91506131a482613f02565b604082019050919050565b60006131bc602c836137d9565b91506131c782613f51565b604082019050919050565b60006131df6020836137d9565b91506131ea82613fa0565b602082019050919050565b6000613202602f836137d9565b915061320d82613fc9565b604082019050919050565b60006132256021836137d9565b915061323082614018565b604082019050919050565b60006132486031836137d9565b915061325382614067565b604082019050919050565b600061326b602c836137d9565b9150613276826140b6565b604082019050919050565b600061328e601c836137d9565b915061329982614105565b602082019050919050565b60006132b16038836137d9565b91506132bc8261412e565b604082019050919050565b60a0820160008201516132dd600085018261332f565b5060208201516132f06020850182612ec3565b5060408201516133036040850182612ec3565b506060820151613316606085018261332f565b5060808201516133296080850182612ee1565b50505050565b6133388161392c565b82525050565b6133478161392c565b82525050565b60006133598285612f71565b91506133658284612f71565b91508190509392505050565b60006020820190506133866000830184612ed2565b92915050565b60006080820190506133a16000830187612ed2565b6133ae6020830186612ed2565b6133bb604083018561333e565b81810360608301526133cd8184612eff565b905095945050505050565b60006020820190506133ed6000830184612ef0565b92915050565b6000602082019050818103600083015261340d8184612f38565b905092915050565b6000602082019050818103600083015261342e81612fa2565b9050919050565b6000602082019050818103600083015261344e81612fc5565b9050919050565b6000602082019050818103600083015261346e81612fe8565b9050919050565b6000602082019050818103600083015261348e8161300b565b9050919050565b600060208201905081810360008301526134ae8161302e565b9050919050565b600060208201905081810360008301526134ce81613051565b9050919050565b600060208201905081810360008301526134ee81613074565b9050919050565b6000602082019050818103600083015261350e81613097565b9050919050565b6000602082019050818103600083015261352e816130ba565b9050919050565b6000602082019050818103600083015261354e816130dd565b9050919050565b6000602082019050818103600083015261356e81613100565b9050919050565b6000602082019050818103600083015261358e81613123565b9050919050565b600060208201905081810360008301526135ae81613146565b9050919050565b600060208201905081810360008301526135ce81613169565b9050919050565b600060208201905081810360008301526135ee8161318c565b9050919050565b6000602082019050818103600083015261360e816131af565b9050919050565b6000602082019050818103600083015261362e816131d2565b9050919050565b6000602082019050818103600083015261364e816131f5565b9050919050565b6000602082019050818103600083015261366e81613218565b9050919050565b6000602082019050818103600083015261368e8161323b565b9050919050565b600060208201905081810360008301526136ae8161325e565b9050919050565b600060208201905081810360008301526136ce81613281565b9050919050565b600060208201905081810360008301526136ee816132a4565b9050919050565b600060a08201905061370a60008301846132c7565b92915050565b6000602082019050613725600083018461333e565b92915050565b6000613735613746565b905061374182826139aa565b919050565b6000604051905090565b600067ffffffffffffffff82111561376b5761376a613ae2565b5b61377482613b11565b9050602081019050919050565b600067ffffffffffffffff82111561379c5761379b613ae2565b5b6137a582613b11565b9050602081019050919050565b600081519050919050565b600081519050919050565b600082825260208201905092915050565b600082825260208201905092915050565b600081905092915050565b60006138008261392c565b915061380b8361392c565b9250827fffffffffffffffffffffffffffffffffffffffffffffffffffffffffffffffff038211156138405761383f613a55565b5b828201905092915050565b60006138568261392c565b91506138618361392c565b92508261387157613870613a84565b5b828204905092915050565b60006138878261392c565b91506138928361392c565b9250828210156138a5576138a4613a55565b5b828203905092915050565b60006138bb8261390c565b9050919050565b60006138cd8261390c565b9050919050565b60008115159050919050565b60007fffffffff0000000000000000000000000000000000000000000000000000000082169050919050565b600073ffffffffffffffffffffffffffffffffffffffff82169050919050565b6000819050919050565b82818337600083830152505050565b60005b83811015613963578082015181840152602081019050613948565b83811115613972576000848401525b50505050565b6000600282049050600182168061399057607f821691505b602082108114156139a4576139a3613ab3565b5b50919050565b6139b382613b11565b810181811067ffffffffffffffff821117156139d2576139d1613ae2565b5b80604052505050565b60006139e68261392c565b91507fffffffffffffffffffffffffffffffffffffffffffffffffffffffffffffffff821415613a1957613a18613a55565b5b600182019050919050565b6000613a2f8261392c565b9150613a3a8361392c565b925082613a4a57613a49613a84565b5b828206905092915050565b7f4e487b7100000000000000000000000000000000000000000000000000000000600052601160045260246000fd5b7f4e487b7100000000000000000000000000000000000000000000000000000000600052601260045260246000fd5b7f4e487b7100000000000000000000000000000000000000000000000000000000600052602260045260246000fd5b7f4e487b7100000000000000000000000000000000000000000000000000000000600052604160045260246000fd5b6000601f19601f8301169050919050565b7f455243373231456e756d657261626c653a206f776e657220696e646578206f7560008201527f74206f6620626f756e6473000000000000000000000000000000000000000000602082015250565b7f4552433732313a207472616e7366657220746f206e6f6e20455243373231526560008201527f63656976657220696d706c656d656e7465720000000000000000000000000000602082015250565b7f4f776e61626c653a206e6577206f776e657220697320746865207a65726f206160008201527f6464726573730000000000000000000000000000000000000000000000000000602082015250565b7f4552433732313a207472616e736665722066726f6d20696e636f72726563742060008201527f6f776e6572000000000000000000000000000000000000000000000000000000602082015250565b7f4552433732313a20746f6b656e20616c7265616479206d696e74656400000000600082015250565b7f4552433732313a207472616e7366657220746f20746865207a65726f2061646460008201527f7265737300000000000000000000000000000000000000000000000000000000602082015250565b7f4552433732313a20617070726f766520746f2063616c6c657200000000000000600082015250565b7f4552433732313a206f70657261746f7220717565727920666f72206e6f6e657860008201527f697374656e7420746f6b656e0000000000000000000000000000000000000000602082015250565b7f4552433732313a20617070726f76652063616c6c6572206973206e6f74206f7760008201527f6e6572206e6f7220617070726f76656420666f7220616c6c0000000000000000602082015250565b7f4552433732313a2062616c616e636520717565727920666f7220746865207a6560008201527f726f206164647265737300000000000000000000000000000000000000000000602082015250565b7f4552433732313a206f776e657220717565727920666f72206e6f6e657869737460008201527f656e7420746f6b656e0000000000000000000000000000000000000000000000602082015250565b7f45524337323155524953746f726167653a2055524920736574206f66206e6f6e60008201527f6578697374656e7420746f6b656e000000000000000000000000000000000000602082015250565b7f4552433732313a206d696e7420746f20746865207a65726f2061646472657373600082015250565b7f45524337323155524953746f726167653a2055524920717565727920666f722060008201527f6e6f6e6578697374656e7420746f6b656e000000000000000000000000000000602082015250565b7f4f6e6c79206974656d206f776e65722063616e20706572666f726d207468697360008201527f206f7065726174696f6e00000000000000000000000000000000000000000000602082015250565b7f4552433732313a20617070726f76656420717565727920666f72206e6f6e657860008201527f697374656e7420746f6b656e0000000000000000000000000000000000000000602082015250565b7f4f776e61626c653a2063616c6c6572206973206e6f7420746865206f776e6572600082015250565b7f4552433732314d657461646174613a2055524920717565727920666f72206e6f60008201527f6e6578697374656e7420746f6b656e0000000000000000000000000000000000602082015250565b7f4552433732313a20617070726f76616c20746f2063757272656e74206f776e6560008201527f7200000000000000000000000000000000000000000000000000000000000000602082015250565b7f4552433732313a207472616e736665722063616c6c6572206973206e6f74206f60008201527f776e6572206e6f7220617070726f766564000000000000000000000000000000602082015250565b7f455243373231456e756d657261626c653a20676c6f62616c20696e646578206f60008201527f7574206f6620626f756e64730000000000000000000000000000000000000000602082015250565b7f5072696365206d757374206265206174206c6561737420312077656900000000600082015250565b7f506c65617365207375626d6974207468652061736b696e67207072696365206960008201527f6e206f7264657220746f206275792074686973206c616e640000000000000000602082015250565b614186816138b0565b811461419157600080fd5b50565b61419d816138d4565b81146141a857600080fd5b50565b6141b4816138e0565b81146141bf57600080fd5b50565b6141cb8161392c565b81146141d657600080fd5b5056fea26469706673582212203a2314e6795420d0e74af90f2e9f55394d6304d7535d4d1a021cecf7d43d47f364736f6c63430008040033",
  "linkReferences": {},
  "deployedLinkReferences": {}
}